{
	"data": {
		"bytecode": {
			"linkReferences": {},
			"object": "60806040525f80553480156011575f80fd5b506117798061001f5f395ff3fe60806040526004361061006f575f3560e01c80638511c9371161004d5780638511c93714610115578063a42291011461013d578063bfb231d214610165578063d38ea5bf146101a65761006f565b80632c67a8e51461007357806342846534146100af5780636bfb0d01146100eb575b5f80fd5b34801561007e575f80fd5b5061009960048036038101906100949190610b61565b6101c2565b6040516100a69190610c4c565b60405180910390f35b3480156100ba575f80fd5b506100d560048036038101906100d09190610c96565b610255565b6040516100e29190610ce3565b60405180910390f35b3480156100f6575f80fd5b506100ff610280565b60405161010c9190610ce3565b60405180910390f35b348015610120575f80fd5b5061013b60048036038101906101369190610e38565b610285565b005b348015610148575f80fd5b50610163600480360381019061015e9190610e92565b6104c6565b005b348015610170575f80fd5b5061018b60048036038101906101869190610ed0565b6105ca565b60405161019d96959493929190610fa4565b60405180910390f35b6101c060048036038101906101bb9190610ed0565b6106d3565b005b606060025f8373ffffffffffffffffffffffffffffffffffffffff1673ffffffffffffffffffffffffffffffffffffffff1681526020019081526020015f2080548060200260200160405190810160405280929190818152602001828054801561024957602002820191905f5260205f20905b815481526020019060010190808311610235575b50505050509050919050565b6002602052815f5260405f20818154811061026e575f80fd5b905f5260205f20015f91509150505481565b5f5481565b5f81116102c7576040517f08c379a00000000000000000000000000000000000000000000000000000000081526004016102be90611054565b60405180910390fd5b5f808154809291906102d89061109f565b91905055506040518060c001604052805f5481526020018381526020018281526020013373ffffffffffffffffffffffffffffffffffffffff1681526020013373ffffffffffffffffffffffffffffffffffffffff1681526020015f151581525060015f805481526020019081526020015f205f820151815f0155602082015181600101908161036891906112e0565b50604082015181600201556060820151816003015f6101000a81548173ffffffffffffffffffffffffffffffffffffffff021916908373ffffffffffffffffffffffffffffffffffffffff1602179055506080820151816004015f6101000a81548173ffffffffffffffffffffffffffffffffffffffff021916908373ffffffffffffffffffffffffffffffffffffffff16021790555060a08201518160040160146101000a81548160ff02191690831515021790555090505060025f3373ffffffffffffffffffffffffffffffffffffffff1673ffffffffffffffffffffffffffffffffffffffff1681526020019081526020015f205f54908060018154018082558091505060019003905f5260205f20015f90919091909150557f4cb34837c7f53a61f23e94bec431249774053a2ab0b596d1382fb3dde16f65cd5f548383336040516104ba94939291906113af565b60405180910390a15050565b5f60015f8481526020019081526020015f2090505f831180156104ea57505f548311155b610529576040517f08c379a000000000000000000000000000000000000000000000000000000000815260040161052090611443565b60405180910390fd5b806004015f9054906101000a900473ffffffffffffffffffffffffffffffffffffffff1673ffffffffffffffffffffffffffffffffffffffff163373ffffffffffffffffffffffffffffffffffffffff16146105ba576040517f08c379a00000000000000000000000000000000000000000000000000000000081526004016105b1906114d1565b60405180910390fd5b6105c5833384610946565b505050565b6001602052805f5260405f205f91509050805f0154908060010180546105ef90611113565b80601f016020809104026020016040519081016040528092919081815260200182805461061b90611113565b80156106665780601f1061063d57610100808354040283529160200191610666565b820191905f5260205f20905b81548152906001019060200180831161064957829003601f168201915b505050505090806002015490806003015f9054906101000a900473ffffffffffffffffffffffffffffffffffffffff1690806004015f9054906101000a900473ffffffffffffffffffffffffffffffffffffffff16908060040160149054906101000a900460ff16905086565b5f60015f8381526020019081526020015f2090505f8211610729576040517f08c379a000000000000000000000000000000000000000000000000000000000815260040161072090611539565b60405180910390fd5b8060020154341461076f576040517f08c379a0000000000000000000000000000000000000000000000000000000008152600401610766906115a1565b60405180910390fd5b5f15158160040160149054906101000a900460ff161515146107c6576040517f08c379a00000000000000000000000000000000000000000000000000000000081526004016107bd90611609565b60405180910390fd5b3373ffffffffffffffffffffffffffffffffffffffff16816003015f9054906101000a900473ffffffffffffffffffffffffffffffffffffffff1673ffffffffffffffffffffffffffffffffffffffff1603610857576040517f08c379a000000000000000000000000000000000000000000000000000000000815260040161084e90611671565b60405180910390fd5b60018160040160146101000a81548160ff021916908315150217905550806003015f9054906101000a900473ffffffffffffffffffffffffffffffffffffffff1673ffffffffffffffffffffffffffffffffffffffff166108fc3490811502906040515f60405180830381858888f193505050501580156108da573d5f803e3d5ffd5b5061090982826003015f9054906101000a900473ffffffffffffffffffffffffffffffffffffffff1633610946565b7f7de4035ced290be6d7724645d43bad448b5d8cc76743ff4da172c2d8e1caa0f5823360405161093a92919061168f565b60405180910390a15050565b5f60015f8581526020019081526020015f20905081816004015f6101000a81548173ffffffffffffffffffffffffffffffffffffffff021916908373ffffffffffffffffffffffffffffffffffffffff1602179055505f60025f8573ffffffffffffffffffffffffffffffffffffffff1673ffffffffffffffffffffffffffffffffffffffff1681526020019081526020015f2090505f5b8180549050811015610a8d57858282815481106109fe576109fd6116b6565b5b905f5260205f20015403610a80578160018380549050610a1e91906116e3565b81548110610a2f57610a2e6116b6565b5b905f5260205f200154828281548110610a4b57610a4a6116b6565b5b905f5260205f20018190555081805480610a6857610a67611716565b5b600190038181905f5260205f20015f90559055610a8d565b80806001019150506109de565b5060025f8473ffffffffffffffffffffffffffffffffffffffff1673ffffffffffffffffffffffffffffffffffffffff1681526020019081526020015f2085908060018154018082558091505060019003905f5260205f20015f90919091909150555050505050565b5f604051905090565b5f80fd5b5f80fd5b5f73ffffffffffffffffffffffffffffffffffffffff82169050919050565b5f610b3082610b07565b9050919050565b610b4081610b26565b8114610b4a575f80fd5b50565b5f81359050610b5b81610b37565b92915050565b5f60208284031215610b7657610b75610aff565b5b5f610b8384828501610b4d565b91505092915050565b5f81519050919050565b5f82825260208201905092915050565b5f819050602082019050919050565b5f819050919050565b610bc781610bb5565b82525050565b5f610bd88383610bbe565b60208301905092915050565b5f602082019050919050565b5f610bfa82610b8c565b610c048185610b96565b9350610c0f83610ba6565b805f5b83811015610c3f578151610c268882610bcd565b9750610c3183610be4565b925050600181019050610c12565b5085935050505092915050565b5f6020820190508181035f830152610c648184610bf0565b905092915050565b610c7581610bb5565b8114610c7f575f80fd5b50565b5f81359050610c9081610c6c565b92915050565b5f8060408385031215610cac57610cab610aff565b5b5f610cb985828601610b4d565b9250506020610cca85828601610c82565b9150509250929050565b610cdd81610bb5565b82525050565b5f602082019050610cf65f830184610cd4565b92915050565b5f80fd5b5f80fd5b5f601f19601f8301169050919050565b7f4e487b71000000000000000000000000000000000000000000000000000000005f52604160045260245ffd5b610d4a82610d04565b810181811067ffffffffffffffff82111715610d6957610d68610d14565b5b80604052505050565b5f610d7b610af6565b9050610d878282610d41565b919050565b5f67ffffffffffffffff821115610da657610da5610d14565b5b610daf82610d04565b9050602081019050919050565b828183375f83830152505050565b5f610ddc610dd784610d8c565b610d72565b905082815260208101848484011115610df857610df7610d00565b5b610e03848285610dbc565b509392505050565b5f82601f830112610e1f57610e1e610cfc565b5b8135610e2f848260208601610dca565b91505092915050565b5f8060408385031215610e4e57610e4d610aff565b5b5f83013567ffffffffffffffff811115610e6b57610e6a610b03565b5b610e7785828601610e0b565b9250506020610e8885828601610c82565b9150509250929050565b5f8060408385031215610ea857610ea7610aff565b5b5f610eb585828601610c82565b9250506020610ec685828601610b4d565b9150509250929050565b5f60208284031215610ee557610ee4610aff565b5b5f610ef284828501610c82565b91505092915050565b5f81519050919050565b5f82825260208201905092915050565b8281835e5f83830152505050565b5f610f2d82610efb565b610f378185610f05565b9350610f47818560208601610f15565b610f5081610d04565b840191505092915050565b5f610f6582610b07565b9050919050565b610f7581610f5b565b82525050565b610f8481610b26565b82525050565b5f8115159050919050565b610f9e81610f8a565b82525050565b5f60c082019050610fb75f830189610cd4565b8181036020830152610fc98188610f23565b9050610fd86040830187610cd4565b610fe56060830186610f6c565b610ff26080830185610f7b565b610fff60a0830184610f95565b979650505050505050565b7f5072696365206d7573742062652067726561746572207468616e2030000000005f82015250565b5f61103e601c83610f05565b91506110498261100a565b602082019050919050565b5f6020820190508181035f83015261106b81611032565b9050919050565b7f4e487b71000000000000000000000000000000000000000000000000000000005f52601160045260245ffd5b5f6110a982610bb5565b91507fffffffffffffffffffffffffffffffffffffffffffffffffffffffffffffffff82036110db576110da611072565b5b600182019050919050565b7f4e487b71000000000000000000000000000000000000000000000000000000005f52602260045260245ffd5b5f600282049050600182168061112a57607f821691505b60208210810361113d5761113c6110e6565b5b50919050565b5f819050815f5260205f209050919050565b5f6020601f8301049050919050565b5f82821b905092915050565b5f6008830261119f7fffffffffffffffffffffffffffffffffffffffffffffffffffffffffffffffff82611164565b6111a98683611164565b95508019841693508086168417925050509392505050565b5f819050919050565b5f6111e46111df6111da84610bb5565b6111c1565b610bb5565b9050919050565b5f819050919050565b6111fd836111ca565b611211611209826111eb565b848454611170565b825550505050565b5f90565b611225611219565b6112308184846111f4565b505050565b5b81811015611253576112485f8261121d565b600181019050611236565b5050565b601f8211156112985761126981611143565b61127284611155565b81016020851015611281578190505b61129561128d85611155565b830182611235565b50505b505050565b5f82821c905092915050565b5f6112b85f198460080261129d565b1980831691505092915050565b5f6112d083836112a9565b9150826002028217905092915050565b6112e982610efb565b67ffffffffffffffff81111561130257611301610d14565b5b61130c8254611113565b611317828285611257565b5f60209050601f831160018114611348575f8415611336578287015190505b61134085826112c5565b8655506113a7565b601f19841661135686611143565b5f5b8281101561137d57848901518255600182019150602085019450602081019050611358565b8683101561139a5784890151611396601f8916826112a9565b8355505b6001600288020188555050505b505050505050565b5f6080820190506113c25f830187610cd4565b81810360208301526113d48186610f23565b90506113e36040830185610cd4565b6113f06060830184610f7b565b95945050505050565b7f4974656d20646f6573206e6f74206578697374000000000000000000000000005f82015250565b5f61142d601383610f05565b9150611438826113f9565b602082019050919050565b5f6020820190508181035f83015261145a81611421565b9050919050565b7f596f7520617265206e6f7420746865206f776e6572206f6620746869732069745f8201527f656d000000000000000000000000000000000000000000000000000000000000602082015250565b5f6114bb602283610f05565b91506114c682611461565b604082019050919050565b5f6020820190508181035f8301526114e8816114af565b9050919050565b7f496e76616c6964204964000000000000000000000000000000000000000000005f82015250565b5f611523600a83610f05565b915061152e826114ef565b602082019050919050565b5f6020820190508181035f83015261155081611517565b9050919050565b7f496e636f727265637420507269636500000000000000000000000000000000005f82015250565b5f61158b600f83610f05565b915061159682611557565b602082019050919050565b5f6020820190508181035f8301526115b88161157f565b9050919050565b7f4974656d20616c726561647920736f6c640000000000000000000000000000005f82015250565b5f6115f3601183610f05565b91506115fe826115bf565b602082019050919050565b5f6020820190508181035f830152611620816115e7565b9050919050565b7f53656c6c65722063616e6e6f7420627579207468656972206f776e206974656d5f82015250565b5f61165b602083610f05565b915061166682611627565b602082019050919050565b5f6020820190508181035f8301526116888161164f565b9050919050565b5f6040820190506116a25f830185610cd4565b6116af6020830184610f7b565b9392505050565b7f4e487b71000000000000000000000000000000000000000000000000000000005f52603260045260245ffd5b5f6116ed82610bb5565b91506116f883610bb5565b92508282039050818111156117105761170f611072565b5b92915050565b7f4e487b71000000000000000000000000000000000000000000000000000000005f52603160045260245ffdfea2646970667358221220e5e7de7200eed2de137fe2269e66b3887a17790013f5cdcf0b4f65d43c4f051564736f6c634300081a0033",
			"opcodes": "PUSH1 0x80 PUSH1 0x40 MSTORE PUSH0 DUP1 SSTORE CALLVALUE DUP1 ISZERO PUSH1 0x11 JUMPI PUSH0 DUP1 REVERT JUMPDEST POP PUSH2 0x1779 DUP1 PUSH2 0x1F PUSH0 CODECOPY PUSH0 RETURN INVALID PUSH1 0x80 PUSH1 0x40 MSTORE PUSH1 0x4 CALLDATASIZE LT PUSH2 0x6F JUMPI PUSH0 CALLDATALOAD PUSH1 0xE0 SHR DUP1 PUSH4 0x8511C937 GT PUSH2 0x4D JUMPI DUP1 PUSH4 0x8511C937 EQ PUSH2 0x115 JUMPI DUP1 PUSH4 0xA4229101 EQ PUSH2 0x13D JUMPI DUP1 PUSH4 0xBFB231D2 EQ PUSH2 0x165 JUMPI DUP1 PUSH4 0xD38EA5BF EQ PUSH2 0x1A6 JUMPI PUSH2 0x6F JUMP JUMPDEST DUP1 PUSH4 0x2C67A8E5 EQ PUSH2 0x73 JUMPI DUP1 PUSH4 0x42846534 EQ PUSH2 0xAF JUMPI DUP1 PUSH4 0x6BFB0D01 EQ PUSH2 0xEB JUMPI JUMPDEST PUSH0 DUP1 REVERT JUMPDEST CALLVALUE DUP1 ISZERO PUSH2 0x7E JUMPI PUSH0 DUP1 REVERT JUMPDEST POP PUSH2 0x99 PUSH1 0x4 DUP1 CALLDATASIZE SUB DUP2 ADD SWAP1 PUSH2 0x94 SWAP2 SWAP1 PUSH2 0xB61 JUMP JUMPDEST PUSH2 0x1C2 JUMP JUMPDEST PUSH1 0x40 MLOAD PUSH2 0xA6 SWAP2 SWAP1 PUSH2 0xC4C JUMP JUMPDEST PUSH1 0x40 MLOAD DUP1 SWAP2 SUB SWAP1 RETURN JUMPDEST CALLVALUE DUP1 ISZERO PUSH2 0xBA JUMPI PUSH0 DUP1 REVERT JUMPDEST POP PUSH2 0xD5 PUSH1 0x4 DUP1 CALLDATASIZE SUB DUP2 ADD SWAP1 PUSH2 0xD0 SWAP2 SWAP1 PUSH2 0xC96 JUMP JUMPDEST PUSH2 0x255 JUMP JUMPDEST PUSH1 0x40 MLOAD PUSH2 0xE2 SWAP2 SWAP1 PUSH2 0xCE3 JUMP JUMPDEST PUSH1 0x40 MLOAD DUP1 SWAP2 SUB SWAP1 RETURN JUMPDEST CALLVALUE DUP1 ISZERO PUSH2 0xF6 JUMPI PUSH0 DUP1 REVERT JUMPDEST POP PUSH2 0xFF PUSH2 0x280 JUMP JUMPDEST PUSH1 0x40 MLOAD PUSH2 0x10C SWAP2 SWAP1 PUSH2 0xCE3 JUMP JUMPDEST PUSH1 0x40 MLOAD DUP1 SWAP2 SUB SWAP1 RETURN JUMPDEST CALLVALUE DUP1 ISZERO PUSH2 0x120 JUMPI PUSH0 DUP1 REVERT JUMPDEST POP PUSH2 0x13B PUSH1 0x4 DUP1 CALLDATASIZE SUB DUP2 ADD SWAP1 PUSH2 0x136 SWAP2 SWAP1 PUSH2 0xE38 JUMP JUMPDEST PUSH2 0x285 JUMP JUMPDEST STOP JUMPDEST CALLVALUE DUP1 ISZERO PUSH2 0x148 JUMPI PUSH0 DUP1 REVERT JUMPDEST POP PUSH2 0x163 PUSH1 0x4 DUP1 CALLDATASIZE SUB DUP2 ADD SWAP1 PUSH2 0x15E SWAP2 SWAP1 PUSH2 0xE92 JUMP JUMPDEST PUSH2 0x4C6 JUMP JUMPDEST STOP JUMPDEST CALLVALUE DUP1 ISZERO PUSH2 0x170 JUMPI PUSH0 DUP1 REVERT JUMPDEST POP PUSH2 0x18B PUSH1 0x4 DUP1 CALLDATASIZE SUB DUP2 ADD SWAP1 PUSH2 0x186 SWAP2 SWAP1 PUSH2 0xED0 JUMP JUMPDEST PUSH2 0x5CA JUMP JUMPDEST PUSH1 0x40 MLOAD PUSH2 0x19D SWAP7 SWAP6 SWAP5 SWAP4 SWAP3 SWAP2 SWAP1 PUSH2 0xFA4 JUMP JUMPDEST PUSH1 0x40 MLOAD DUP1 SWAP2 SUB SWAP1 RETURN JUMPDEST PUSH2 0x1C0 PUSH1 0x4 DUP1 CALLDATASIZE SUB DUP2 ADD SWAP1 PUSH2 0x1BB SWAP2 SWAP1 PUSH2 0xED0 JUMP JUMPDEST PUSH2 0x6D3 JUMP JUMPDEST STOP JUMPDEST PUSH1 0x60 PUSH1 0x2 PUSH0 DUP4 PUSH20 0xFFFFFFFFFFFFFFFFFFFFFFFFFFFFFFFFFFFFFFFF AND PUSH20 0xFFFFFFFFFFFFFFFFFFFFFFFFFFFFFFFFFFFFFFFF AND DUP2 MSTORE PUSH1 0x20 ADD SWAP1 DUP2 MSTORE PUSH1 0x20 ADD PUSH0 KECCAK256 DUP1 SLOAD DUP1 PUSH1 0x20 MUL PUSH1 0x20 ADD PUSH1 0x40 MLOAD SWAP1 DUP2 ADD PUSH1 0x40 MSTORE DUP1 SWAP3 SWAP2 SWAP1 DUP2 DUP2 MSTORE PUSH1 0x20 ADD DUP3 DUP1 SLOAD DUP1 ISZERO PUSH2 0x249 JUMPI PUSH1 0x20 MUL DUP3 ADD SWAP2 SWAP1 PUSH0 MSTORE PUSH1 0x20 PUSH0 KECCAK256 SWAP1 JUMPDEST DUP2 SLOAD DUP2 MSTORE PUSH1 0x20 ADD SWAP1 PUSH1 0x1 ADD SWAP1 DUP1 DUP4 GT PUSH2 0x235 JUMPI JUMPDEST POP POP POP POP POP SWAP1 POP SWAP2 SWAP1 POP JUMP JUMPDEST PUSH1 0x2 PUSH1 0x20 MSTORE DUP2 PUSH0 MSTORE PUSH1 0x40 PUSH0 KECCAK256 DUP2 DUP2 SLOAD DUP2 LT PUSH2 0x26E JUMPI PUSH0 DUP1 REVERT JUMPDEST SWAP1 PUSH0 MSTORE PUSH1 0x20 PUSH0 KECCAK256 ADD PUSH0 SWAP2 POP SWAP2 POP POP SLOAD DUP2 JUMP JUMPDEST PUSH0 SLOAD DUP2 JUMP JUMPDEST PUSH0 DUP2 GT PUSH2 0x2C7 JUMPI PUSH1 0x40 MLOAD PUSH32 0x8C379A000000000000000000000000000000000000000000000000000000000 DUP2 MSTORE PUSH1 0x4 ADD PUSH2 0x2BE SWAP1 PUSH2 0x1054 JUMP JUMPDEST PUSH1 0x40 MLOAD DUP1 SWAP2 SUB SWAP1 REVERT JUMPDEST PUSH0 DUP1 DUP2 SLOAD DUP1 SWAP3 SWAP2 SWAP1 PUSH2 0x2D8 SWAP1 PUSH2 0x109F JUMP JUMPDEST SWAP2 SWAP1 POP SSTORE POP PUSH1 0x40 MLOAD DUP1 PUSH1 0xC0 ADD PUSH1 0x40 MSTORE DUP1 PUSH0 SLOAD DUP2 MSTORE PUSH1 0x20 ADD DUP4 DUP2 MSTORE PUSH1 0x20 ADD DUP3 DUP2 MSTORE PUSH1 0x20 ADD CALLER PUSH20 0xFFFFFFFFFFFFFFFFFFFFFFFFFFFFFFFFFFFFFFFF AND DUP2 MSTORE PUSH1 0x20 ADD CALLER PUSH20 0xFFFFFFFFFFFFFFFFFFFFFFFFFFFFFFFFFFFFFFFF AND DUP2 MSTORE PUSH1 0x20 ADD PUSH0 ISZERO ISZERO DUP2 MSTORE POP PUSH1 0x1 PUSH0 DUP1 SLOAD DUP2 MSTORE PUSH1 0x20 ADD SWAP1 DUP2 MSTORE PUSH1 0x20 ADD PUSH0 KECCAK256 PUSH0 DUP3 ADD MLOAD DUP2 PUSH0 ADD SSTORE PUSH1 0x20 DUP3 ADD MLOAD DUP2 PUSH1 0x1 ADD SWAP1 DUP2 PUSH2 0x368 SWAP2 SWAP1 PUSH2 0x12E0 JUMP JUMPDEST POP PUSH1 0x40 DUP3 ADD MLOAD DUP2 PUSH1 0x2 ADD SSTORE PUSH1 0x60 DUP3 ADD MLOAD DUP2 PUSH1 0x3 ADD PUSH0 PUSH2 0x100 EXP DUP2 SLOAD DUP2 PUSH20 0xFFFFFFFFFFFFFFFFFFFFFFFFFFFFFFFFFFFFFFFF MUL NOT AND SWAP1 DUP4 PUSH20 0xFFFFFFFFFFFFFFFFFFFFFFFFFFFFFFFFFFFFFFFF AND MUL OR SWAP1 SSTORE POP PUSH1 0x80 DUP3 ADD MLOAD DUP2 PUSH1 0x4 ADD PUSH0 PUSH2 0x100 EXP DUP2 SLOAD DUP2 PUSH20 0xFFFFFFFFFFFFFFFFFFFFFFFFFFFFFFFFFFFFFFFF MUL NOT AND SWAP1 DUP4 PUSH20 0xFFFFFFFFFFFFFFFFFFFFFFFFFFFFFFFFFFFFFFFF AND MUL OR SWAP1 SSTORE POP PUSH1 0xA0 DUP3 ADD MLOAD DUP2 PUSH1 0x4 ADD PUSH1 0x14 PUSH2 0x100 EXP DUP2 SLOAD DUP2 PUSH1 0xFF MUL NOT AND SWAP1 DUP4 ISZERO ISZERO MUL OR SWAP1 SSTORE POP SWAP1 POP POP PUSH1 0x2 PUSH0 CALLER PUSH20 0xFFFFFFFFFFFFFFFFFFFFFFFFFFFFFFFFFFFFFFFF AND PUSH20 0xFFFFFFFFFFFFFFFFFFFFFFFFFFFFFFFFFFFFFFFF AND DUP2 MSTORE PUSH1 0x20 ADD SWAP1 DUP2 MSTORE PUSH1 0x20 ADD PUSH0 KECCAK256 PUSH0 SLOAD SWAP1 DUP1 PUSH1 0x1 DUP2 SLOAD ADD DUP1 DUP3 SSTORE DUP1 SWAP2 POP POP PUSH1 0x1 SWAP1 SUB SWAP1 PUSH0 MSTORE PUSH1 0x20 PUSH0 KECCAK256 ADD PUSH0 SWAP1 SWAP2 SWAP1 SWAP2 SWAP1 SWAP2 POP SSTORE PUSH32 0x4CB34837C7F53A61F23E94BEC431249774053A2AB0B596D1382FB3DDE16F65CD PUSH0 SLOAD DUP4 DUP4 CALLER PUSH1 0x40 MLOAD PUSH2 0x4BA SWAP5 SWAP4 SWAP3 SWAP2 SWAP1 PUSH2 0x13AF JUMP JUMPDEST PUSH1 0x40 MLOAD DUP1 SWAP2 SUB SWAP1 LOG1 POP POP JUMP JUMPDEST PUSH0 PUSH1 0x1 PUSH0 DUP5 DUP2 MSTORE PUSH1 0x20 ADD SWAP1 DUP2 MSTORE PUSH1 0x20 ADD PUSH0 KECCAK256 SWAP1 POP PUSH0 DUP4 GT DUP1 ISZERO PUSH2 0x4EA JUMPI POP PUSH0 SLOAD DUP4 GT ISZERO JUMPDEST PUSH2 0x529 JUMPI PUSH1 0x40 MLOAD PUSH32 0x8C379A000000000000000000000000000000000000000000000000000000000 DUP2 MSTORE PUSH1 0x4 ADD PUSH2 0x520 SWAP1 PUSH2 0x1443 JUMP JUMPDEST PUSH1 0x40 MLOAD DUP1 SWAP2 SUB SWAP1 REVERT JUMPDEST DUP1 PUSH1 0x4 ADD PUSH0 SWAP1 SLOAD SWAP1 PUSH2 0x100 EXP SWAP1 DIV PUSH20 0xFFFFFFFFFFFFFFFFFFFFFFFFFFFFFFFFFFFFFFFF AND PUSH20 0xFFFFFFFFFFFFFFFFFFFFFFFFFFFFFFFFFFFFFFFF AND CALLER PUSH20 0xFFFFFFFFFFFFFFFFFFFFFFFFFFFFFFFFFFFFFFFF AND EQ PUSH2 0x5BA JUMPI PUSH1 0x40 MLOAD PUSH32 0x8C379A000000000000000000000000000000000000000000000000000000000 DUP2 MSTORE PUSH1 0x4 ADD PUSH2 0x5B1 SWAP1 PUSH2 0x14D1 JUMP JUMPDEST PUSH1 0x40 MLOAD DUP1 SWAP2 SUB SWAP1 REVERT JUMPDEST PUSH2 0x5C5 DUP4 CALLER DUP5 PUSH2 0x946 JUMP JUMPDEST POP POP POP JUMP JUMPDEST PUSH1 0x1 PUSH1 0x20 MSTORE DUP1 PUSH0 MSTORE PUSH1 0x40 PUSH0 KECCAK256 PUSH0 SWAP2 POP SWAP1 POP DUP1 PUSH0 ADD SLOAD SWAP1 DUP1 PUSH1 0x1 ADD DUP1 SLOAD PUSH2 0x5EF SWAP1 PUSH2 0x1113 JUMP JUMPDEST DUP1 PUSH1 0x1F ADD PUSH1 0x20 DUP1 SWAP2 DIV MUL PUSH1 0x20 ADD PUSH1 0x40 MLOAD SWAP1 DUP2 ADD PUSH1 0x40 MSTORE DUP1 SWAP3 SWAP2 SWAP1 DUP2 DUP2 MSTORE PUSH1 0x20 ADD DUP3 DUP1 SLOAD PUSH2 0x61B SWAP1 PUSH2 0x1113 JUMP JUMPDEST DUP1 ISZERO PUSH2 0x666 JUMPI DUP1 PUSH1 0x1F LT PUSH2 0x63D JUMPI PUSH2 0x100 DUP1 DUP4 SLOAD DIV MUL DUP4 MSTORE SWAP2 PUSH1 0x20 ADD SWAP2 PUSH2 0x666 JUMP JUMPDEST DUP3 ADD SWAP2 SWAP1 PUSH0 MSTORE PUSH1 0x20 PUSH0 KECCAK256 SWAP1 JUMPDEST DUP2 SLOAD DUP2 MSTORE SWAP1 PUSH1 0x1 ADD SWAP1 PUSH1 0x20 ADD DUP1 DUP4 GT PUSH2 0x649 JUMPI DUP3 SWAP1 SUB PUSH1 0x1F AND DUP3 ADD SWAP2 JUMPDEST POP POP POP POP POP SWAP1 DUP1 PUSH1 0x2 ADD SLOAD SWAP1 DUP1 PUSH1 0x3 ADD PUSH0 SWAP1 SLOAD SWAP1 PUSH2 0x100 EXP SWAP1 DIV PUSH20 0xFFFFFFFFFFFFFFFFFFFFFFFFFFFFFFFFFFFFFFFF AND SWAP1 DUP1 PUSH1 0x4 ADD PUSH0 SWAP1 SLOAD SWAP1 PUSH2 0x100 EXP SWAP1 DIV PUSH20 0xFFFFFFFFFFFFFFFFFFFFFFFFFFFFFFFFFFFFFFFF AND SWAP1 DUP1 PUSH1 0x4 ADD PUSH1 0x14 SWAP1 SLOAD SWAP1 PUSH2 0x100 EXP SWAP1 DIV PUSH1 0xFF AND SWAP1 POP DUP7 JUMP JUMPDEST PUSH0 PUSH1 0x1 PUSH0 DUP4 DUP2 MSTORE PUSH1 0x20 ADD SWAP1 DUP2 MSTORE PUSH1 0x20 ADD PUSH0 KECCAK256 SWAP1 POP PUSH0 DUP3 GT PUSH2 0x729 JUMPI PUSH1 0x40 MLOAD PUSH32 0x8C379A000000000000000000000000000000000000000000000000000000000 DUP2 MSTORE PUSH1 0x4 ADD PUSH2 0x720 SWAP1 PUSH2 0x1539 JUMP JUMPDEST PUSH1 0x40 MLOAD DUP1 SWAP2 SUB SWAP1 REVERT JUMPDEST DUP1 PUSH1 0x2 ADD SLOAD CALLVALUE EQ PUSH2 0x76F JUMPI PUSH1 0x40 MLOAD PUSH32 0x8C379A000000000000000000000000000000000000000000000000000000000 DUP2 MSTORE PUSH1 0x4 ADD PUSH2 0x766 SWAP1 PUSH2 0x15A1 JUMP JUMPDEST PUSH1 0x40 MLOAD DUP1 SWAP2 SUB SWAP1 REVERT JUMPDEST PUSH0 ISZERO ISZERO DUP2 PUSH1 0x4 ADD PUSH1 0x14 SWAP1 SLOAD SWAP1 PUSH2 0x100 EXP SWAP1 DIV PUSH1 0xFF AND ISZERO ISZERO EQ PUSH2 0x7C6 JUMPI PUSH1 0x40 MLOAD PUSH32 0x8C379A000000000000000000000000000000000000000000000000000000000 DUP2 MSTORE PUSH1 0x4 ADD PUSH2 0x7BD SWAP1 PUSH2 0x1609 JUMP JUMPDEST PUSH1 0x40 MLOAD DUP1 SWAP2 SUB SWAP1 REVERT JUMPDEST CALLER PUSH20 0xFFFFFFFFFFFFFFFFFFFFFFFFFFFFFFFFFFFFFFFF AND DUP2 PUSH1 0x3 ADD PUSH0 SWAP1 SLOAD SWAP1 PUSH2 0x100 EXP SWAP1 DIV PUSH20 0xFFFFFFFFFFFFFFFFFFFFFFFFFFFFFFFFFFFFFFFF AND PUSH20 0xFFFFFFFFFFFFFFFFFFFFFFFFFFFFFFFFFFFFFFFF AND SUB PUSH2 0x857 JUMPI PUSH1 0x40 MLOAD PUSH32 0x8C379A000000000000000000000000000000000000000000000000000000000 DUP2 MSTORE PUSH1 0x4 ADD PUSH2 0x84E SWAP1 PUSH2 0x1671 JUMP JUMPDEST PUSH1 0x40 MLOAD DUP1 SWAP2 SUB SWAP1 REVERT JUMPDEST PUSH1 0x1 DUP2 PUSH1 0x4 ADD PUSH1 0x14 PUSH2 0x100 EXP DUP2 SLOAD DUP2 PUSH1 0xFF MUL NOT AND SWAP1 DUP4 ISZERO ISZERO MUL OR SWAP1 SSTORE POP DUP1 PUSH1 0x3 ADD PUSH0 SWAP1 SLOAD SWAP1 PUSH2 0x100 EXP SWAP1 DIV PUSH20 0xFFFFFFFFFFFFFFFFFFFFFFFFFFFFFFFFFFFFFFFF AND PUSH20 0xFFFFFFFFFFFFFFFFFFFFFFFFFFFFFFFFFFFFFFFF AND PUSH2 0x8FC CALLVALUE SWAP1 DUP2 ISZERO MUL SWAP1 PUSH1 0x40 MLOAD PUSH0 PUSH1 0x40 MLOAD DUP1 DUP4 SUB DUP2 DUP6 DUP9 DUP9 CALL SWAP4 POP POP POP POP ISZERO DUP1 ISZERO PUSH2 0x8DA JUMPI RETURNDATASIZE PUSH0 DUP1 RETURNDATACOPY RETURNDATASIZE PUSH0 REVERT JUMPDEST POP PUSH2 0x909 DUP3 DUP3 PUSH1 0x3 ADD PUSH0 SWAP1 SLOAD SWAP1 PUSH2 0x100 EXP SWAP1 DIV PUSH20 0xFFFFFFFFFFFFFFFFFFFFFFFFFFFFFFFFFFFFFFFF AND CALLER PUSH2 0x946 JUMP JUMPDEST PUSH32 0x7DE4035CED290BE6D7724645D43BAD448B5D8CC76743FF4DA172C2D8E1CAA0F5 DUP3 CALLER PUSH1 0x40 MLOAD PUSH2 0x93A SWAP3 SWAP2 SWAP1 PUSH2 0x168F JUMP JUMPDEST PUSH1 0x40 MLOAD DUP1 SWAP2 SUB SWAP1 LOG1 POP POP JUMP JUMPDEST PUSH0 PUSH1 0x1 PUSH0 DUP6 DUP2 MSTORE PUSH1 0x20 ADD SWAP1 DUP2 MSTORE PUSH1 0x20 ADD PUSH0 KECCAK256 SWAP1 POP DUP2 DUP2 PUSH1 0x4 ADD PUSH0 PUSH2 0x100 EXP DUP2 SLOAD DUP2 PUSH20 0xFFFFFFFFFFFFFFFFFFFFFFFFFFFFFFFFFFFFFFFF MUL NOT AND SWAP1 DUP4 PUSH20 0xFFFFFFFFFFFFFFFFFFFFFFFFFFFFFFFFFFFFFFFF AND MUL OR SWAP1 SSTORE POP PUSH0 PUSH1 0x2 PUSH0 DUP6 PUSH20 0xFFFFFFFFFFFFFFFFFFFFFFFFFFFFFFFFFFFFFFFF AND PUSH20 0xFFFFFFFFFFFFFFFFFFFFFFFFFFFFFFFFFFFFFFFF AND DUP2 MSTORE PUSH1 0x20 ADD SWAP1 DUP2 MSTORE PUSH1 0x20 ADD PUSH0 KECCAK256 SWAP1 POP PUSH0 JUMPDEST DUP2 DUP1 SLOAD SWAP1 POP DUP2 LT ISZERO PUSH2 0xA8D JUMPI DUP6 DUP3 DUP3 DUP2 SLOAD DUP2 LT PUSH2 0x9FE JUMPI PUSH2 0x9FD PUSH2 0x16B6 JUMP JUMPDEST JUMPDEST SWAP1 PUSH0 MSTORE PUSH1 0x20 PUSH0 KECCAK256 ADD SLOAD SUB PUSH2 0xA80 JUMPI DUP2 PUSH1 0x1 DUP4 DUP1 SLOAD SWAP1 POP PUSH2 0xA1E SWAP2 SWAP1 PUSH2 0x16E3 JUMP JUMPDEST DUP2 SLOAD DUP2 LT PUSH2 0xA2F JUMPI PUSH2 0xA2E PUSH2 0x16B6 JUMP JUMPDEST JUMPDEST SWAP1 PUSH0 MSTORE PUSH1 0x20 PUSH0 KECCAK256 ADD SLOAD DUP3 DUP3 DUP2 SLOAD DUP2 LT PUSH2 0xA4B JUMPI PUSH2 0xA4A PUSH2 0x16B6 JUMP JUMPDEST JUMPDEST SWAP1 PUSH0 MSTORE PUSH1 0x20 PUSH0 KECCAK256 ADD DUP2 SWAP1 SSTORE POP DUP2 DUP1 SLOAD DUP1 PUSH2 0xA68 JUMPI PUSH2 0xA67 PUSH2 0x1716 JUMP JUMPDEST JUMPDEST PUSH1 0x1 SWAP1 SUB DUP2 DUP2 SWAP1 PUSH0 MSTORE PUSH1 0x20 PUSH0 KECCAK256 ADD PUSH0 SWAP1 SSTORE SWAP1 SSTORE PUSH2 0xA8D JUMP JUMPDEST DUP1 DUP1 PUSH1 0x1 ADD SWAP2 POP POP PUSH2 0x9DE JUMP JUMPDEST POP PUSH1 0x2 PUSH0 DUP5 PUSH20 0xFFFFFFFFFFFFFFFFFFFFFFFFFFFFFFFFFFFFFFFF AND PUSH20 0xFFFFFFFFFFFFFFFFFFFFFFFFFFFFFFFFFFFFFFFF AND DUP2 MSTORE PUSH1 0x20 ADD SWAP1 DUP2 MSTORE PUSH1 0x20 ADD PUSH0 KECCAK256 DUP6 SWAP1 DUP1 PUSH1 0x1 DUP2 SLOAD ADD DUP1 DUP3 SSTORE DUP1 SWAP2 POP POP PUSH1 0x1 SWAP1 SUB SWAP1 PUSH0 MSTORE PUSH1 0x20 PUSH0 KECCAK256 ADD PUSH0 SWAP1 SWAP2 SWAP1 SWAP2 SWAP1 SWAP2 POP SSTORE POP POP POP POP POP JUMP JUMPDEST PUSH0 PUSH1 0x40 MLOAD SWAP1 POP SWAP1 JUMP JUMPDEST PUSH0 DUP1 REVERT JUMPDEST PUSH0 DUP1 REVERT JUMPDEST PUSH0 PUSH20 0xFFFFFFFFFFFFFFFFFFFFFFFFFFFFFFFFFFFFFFFF DUP3 AND SWAP1 POP SWAP2 SWAP1 POP JUMP JUMPDEST PUSH0 PUSH2 0xB30 DUP3 PUSH2 0xB07 JUMP JUMPDEST SWAP1 POP SWAP2 SWAP1 POP JUMP JUMPDEST PUSH2 0xB40 DUP2 PUSH2 0xB26 JUMP JUMPDEST DUP2 EQ PUSH2 0xB4A JUMPI PUSH0 DUP1 REVERT JUMPDEST POP JUMP JUMPDEST PUSH0 DUP2 CALLDATALOAD SWAP1 POP PUSH2 0xB5B DUP2 PUSH2 0xB37 JUMP JUMPDEST SWAP3 SWAP2 POP POP JUMP JUMPDEST PUSH0 PUSH1 0x20 DUP3 DUP5 SUB SLT ISZERO PUSH2 0xB76 JUMPI PUSH2 0xB75 PUSH2 0xAFF JUMP JUMPDEST JUMPDEST PUSH0 PUSH2 0xB83 DUP5 DUP3 DUP6 ADD PUSH2 0xB4D JUMP JUMPDEST SWAP2 POP POP SWAP3 SWAP2 POP POP JUMP JUMPDEST PUSH0 DUP2 MLOAD SWAP1 POP SWAP2 SWAP1 POP JUMP JUMPDEST PUSH0 DUP3 DUP3 MSTORE PUSH1 0x20 DUP3 ADD SWAP1 POP SWAP3 SWAP2 POP POP JUMP JUMPDEST PUSH0 DUP2 SWAP1 POP PUSH1 0x20 DUP3 ADD SWAP1 POP SWAP2 SWAP1 POP JUMP JUMPDEST PUSH0 DUP2 SWAP1 POP SWAP2 SWAP1 POP JUMP JUMPDEST PUSH2 0xBC7 DUP2 PUSH2 0xBB5 JUMP JUMPDEST DUP3 MSTORE POP POP JUMP JUMPDEST PUSH0 PUSH2 0xBD8 DUP4 DUP4 PUSH2 0xBBE JUMP JUMPDEST PUSH1 0x20 DUP4 ADD SWAP1 POP SWAP3 SWAP2 POP POP JUMP JUMPDEST PUSH0 PUSH1 0x20 DUP3 ADD SWAP1 POP SWAP2 SWAP1 POP JUMP JUMPDEST PUSH0 PUSH2 0xBFA DUP3 PUSH2 0xB8C JUMP JUMPDEST PUSH2 0xC04 DUP2 DUP6 PUSH2 0xB96 JUMP JUMPDEST SWAP4 POP PUSH2 0xC0F DUP4 PUSH2 0xBA6 JUMP JUMPDEST DUP1 PUSH0 JUMPDEST DUP4 DUP2 LT ISZERO PUSH2 0xC3F JUMPI DUP2 MLOAD PUSH2 0xC26 DUP9 DUP3 PUSH2 0xBCD JUMP JUMPDEST SWAP8 POP PUSH2 0xC31 DUP4 PUSH2 0xBE4 JUMP JUMPDEST SWAP3 POP POP PUSH1 0x1 DUP2 ADD SWAP1 POP PUSH2 0xC12 JUMP JUMPDEST POP DUP6 SWAP4 POP POP POP POP SWAP3 SWAP2 POP POP JUMP JUMPDEST PUSH0 PUSH1 0x20 DUP3 ADD SWAP1 POP DUP2 DUP2 SUB PUSH0 DUP4 ADD MSTORE PUSH2 0xC64 DUP2 DUP5 PUSH2 0xBF0 JUMP JUMPDEST SWAP1 POP SWAP3 SWAP2 POP POP JUMP JUMPDEST PUSH2 0xC75 DUP2 PUSH2 0xBB5 JUMP JUMPDEST DUP2 EQ PUSH2 0xC7F JUMPI PUSH0 DUP1 REVERT JUMPDEST POP JUMP JUMPDEST PUSH0 DUP2 CALLDATALOAD SWAP1 POP PUSH2 0xC90 DUP2 PUSH2 0xC6C JUMP JUMPDEST SWAP3 SWAP2 POP POP JUMP JUMPDEST PUSH0 DUP1 PUSH1 0x40 DUP4 DUP6 SUB SLT ISZERO PUSH2 0xCAC JUMPI PUSH2 0xCAB PUSH2 0xAFF JUMP JUMPDEST JUMPDEST PUSH0 PUSH2 0xCB9 DUP6 DUP3 DUP7 ADD PUSH2 0xB4D JUMP JUMPDEST SWAP3 POP POP PUSH1 0x20 PUSH2 0xCCA DUP6 DUP3 DUP7 ADD PUSH2 0xC82 JUMP JUMPDEST SWAP2 POP POP SWAP3 POP SWAP3 SWAP1 POP JUMP JUMPDEST PUSH2 0xCDD DUP2 PUSH2 0xBB5 JUMP JUMPDEST DUP3 MSTORE POP POP JUMP JUMPDEST PUSH0 PUSH1 0x20 DUP3 ADD SWAP1 POP PUSH2 0xCF6 PUSH0 DUP4 ADD DUP5 PUSH2 0xCD4 JUMP JUMPDEST SWAP3 SWAP2 POP POP JUMP JUMPDEST PUSH0 DUP1 REVERT JUMPDEST PUSH0 DUP1 REVERT JUMPDEST PUSH0 PUSH1 0x1F NOT PUSH1 0x1F DUP4 ADD AND SWAP1 POP SWAP2 SWAP1 POP JUMP JUMPDEST PUSH32 0x4E487B7100000000000000000000000000000000000000000000000000000000 PUSH0 MSTORE PUSH1 0x41 PUSH1 0x4 MSTORE PUSH1 0x24 PUSH0 REVERT JUMPDEST PUSH2 0xD4A DUP3 PUSH2 0xD04 JUMP JUMPDEST DUP2 ADD DUP2 DUP2 LT PUSH8 0xFFFFFFFFFFFFFFFF DUP3 GT OR ISZERO PUSH2 0xD69 JUMPI PUSH2 0xD68 PUSH2 0xD14 JUMP JUMPDEST JUMPDEST DUP1 PUSH1 0x40 MSTORE POP POP POP JUMP JUMPDEST PUSH0 PUSH2 0xD7B PUSH2 0xAF6 JUMP JUMPDEST SWAP1 POP PUSH2 0xD87 DUP3 DUP3 PUSH2 0xD41 JUMP JUMPDEST SWAP2 SWAP1 POP JUMP JUMPDEST PUSH0 PUSH8 0xFFFFFFFFFFFFFFFF DUP3 GT ISZERO PUSH2 0xDA6 JUMPI PUSH2 0xDA5 PUSH2 0xD14 JUMP JUMPDEST JUMPDEST PUSH2 0xDAF DUP3 PUSH2 0xD04 JUMP JUMPDEST SWAP1 POP PUSH1 0x20 DUP2 ADD SWAP1 POP SWAP2 SWAP1 POP JUMP JUMPDEST DUP3 DUP2 DUP4 CALLDATACOPY PUSH0 DUP4 DUP4 ADD MSTORE POP POP POP JUMP JUMPDEST PUSH0 PUSH2 0xDDC PUSH2 0xDD7 DUP5 PUSH2 0xD8C JUMP JUMPDEST PUSH2 0xD72 JUMP JUMPDEST SWAP1 POP DUP3 DUP2 MSTORE PUSH1 0x20 DUP2 ADD DUP5 DUP5 DUP5 ADD GT ISZERO PUSH2 0xDF8 JUMPI PUSH2 0xDF7 PUSH2 0xD00 JUMP JUMPDEST JUMPDEST PUSH2 0xE03 DUP5 DUP3 DUP6 PUSH2 0xDBC JUMP JUMPDEST POP SWAP4 SWAP3 POP POP POP JUMP JUMPDEST PUSH0 DUP3 PUSH1 0x1F DUP4 ADD SLT PUSH2 0xE1F JUMPI PUSH2 0xE1E PUSH2 0xCFC JUMP JUMPDEST JUMPDEST DUP2 CALLDATALOAD PUSH2 0xE2F DUP5 DUP3 PUSH1 0x20 DUP7 ADD PUSH2 0xDCA JUMP JUMPDEST SWAP2 POP POP SWAP3 SWAP2 POP POP JUMP JUMPDEST PUSH0 DUP1 PUSH1 0x40 DUP4 DUP6 SUB SLT ISZERO PUSH2 0xE4E JUMPI PUSH2 0xE4D PUSH2 0xAFF JUMP JUMPDEST JUMPDEST PUSH0 DUP4 ADD CALLDATALOAD PUSH8 0xFFFFFFFFFFFFFFFF DUP2 GT ISZERO PUSH2 0xE6B JUMPI PUSH2 0xE6A PUSH2 0xB03 JUMP JUMPDEST JUMPDEST PUSH2 0xE77 DUP6 DUP3 DUP7 ADD PUSH2 0xE0B JUMP JUMPDEST SWAP3 POP POP PUSH1 0x20 PUSH2 0xE88 DUP6 DUP3 DUP7 ADD PUSH2 0xC82 JUMP JUMPDEST SWAP2 POP POP SWAP3 POP SWAP3 SWAP1 POP JUMP JUMPDEST PUSH0 DUP1 PUSH1 0x40 DUP4 DUP6 SUB SLT ISZERO PUSH2 0xEA8 JUMPI PUSH2 0xEA7 PUSH2 0xAFF JUMP JUMPDEST JUMPDEST PUSH0 PUSH2 0xEB5 DUP6 DUP3 DUP7 ADD PUSH2 0xC82 JUMP JUMPDEST SWAP3 POP POP PUSH1 0x20 PUSH2 0xEC6 DUP6 DUP3 DUP7 ADD PUSH2 0xB4D JUMP JUMPDEST SWAP2 POP POP SWAP3 POP SWAP3 SWAP1 POP JUMP JUMPDEST PUSH0 PUSH1 0x20 DUP3 DUP5 SUB SLT ISZERO PUSH2 0xEE5 JUMPI PUSH2 0xEE4 PUSH2 0xAFF JUMP JUMPDEST JUMPDEST PUSH0 PUSH2 0xEF2 DUP5 DUP3 DUP6 ADD PUSH2 0xC82 JUMP JUMPDEST SWAP2 POP POP SWAP3 SWAP2 POP POP JUMP JUMPDEST PUSH0 DUP2 MLOAD SWAP1 POP SWAP2 SWAP1 POP JUMP JUMPDEST PUSH0 DUP3 DUP3 MSTORE PUSH1 0x20 DUP3 ADD SWAP1 POP SWAP3 SWAP2 POP POP JUMP JUMPDEST DUP3 DUP2 DUP4 MCOPY PUSH0 DUP4 DUP4 ADD MSTORE POP POP POP JUMP JUMPDEST PUSH0 PUSH2 0xF2D DUP3 PUSH2 0xEFB JUMP JUMPDEST PUSH2 0xF37 DUP2 DUP6 PUSH2 0xF05 JUMP JUMPDEST SWAP4 POP PUSH2 0xF47 DUP2 DUP6 PUSH1 0x20 DUP7 ADD PUSH2 0xF15 JUMP JUMPDEST PUSH2 0xF50 DUP2 PUSH2 0xD04 JUMP JUMPDEST DUP5 ADD SWAP2 POP POP SWAP3 SWAP2 POP POP JUMP JUMPDEST PUSH0 PUSH2 0xF65 DUP3 PUSH2 0xB07 JUMP JUMPDEST SWAP1 POP SWAP2 SWAP1 POP JUMP JUMPDEST PUSH2 0xF75 DUP2 PUSH2 0xF5B JUMP JUMPDEST DUP3 MSTORE POP POP JUMP JUMPDEST PUSH2 0xF84 DUP2 PUSH2 0xB26 JUMP JUMPDEST DUP3 MSTORE POP POP JUMP JUMPDEST PUSH0 DUP2 ISZERO ISZERO SWAP1 POP SWAP2 SWAP1 POP JUMP JUMPDEST PUSH2 0xF9E DUP2 PUSH2 0xF8A JUMP JUMPDEST DUP3 MSTORE POP POP JUMP JUMPDEST PUSH0 PUSH1 0xC0 DUP3 ADD SWAP1 POP PUSH2 0xFB7 PUSH0 DUP4 ADD DUP10 PUSH2 0xCD4 JUMP JUMPDEST DUP2 DUP2 SUB PUSH1 0x20 DUP4 ADD MSTORE PUSH2 0xFC9 DUP2 DUP9 PUSH2 0xF23 JUMP JUMPDEST SWAP1 POP PUSH2 0xFD8 PUSH1 0x40 DUP4 ADD DUP8 PUSH2 0xCD4 JUMP JUMPDEST PUSH2 0xFE5 PUSH1 0x60 DUP4 ADD DUP7 PUSH2 0xF6C JUMP JUMPDEST PUSH2 0xFF2 PUSH1 0x80 DUP4 ADD DUP6 PUSH2 0xF7B JUMP JUMPDEST PUSH2 0xFFF PUSH1 0xA0 DUP4 ADD DUP5 PUSH2 0xF95 JUMP JUMPDEST SWAP8 SWAP7 POP POP POP POP POP POP POP JUMP JUMPDEST PUSH32 0x5072696365206D7573742062652067726561746572207468616E203000000000 PUSH0 DUP3 ADD MSTORE POP JUMP JUMPDEST PUSH0 PUSH2 0x103E PUSH1 0x1C DUP4 PUSH2 0xF05 JUMP JUMPDEST SWAP2 POP PUSH2 0x1049 DUP3 PUSH2 0x100A JUMP JUMPDEST PUSH1 0x20 DUP3 ADD SWAP1 POP SWAP2 SWAP1 POP JUMP JUMPDEST PUSH0 PUSH1 0x20 DUP3 ADD SWAP1 POP DUP2 DUP2 SUB PUSH0 DUP4 ADD MSTORE PUSH2 0x106B DUP2 PUSH2 0x1032 JUMP JUMPDEST SWAP1 POP SWAP2 SWAP1 POP JUMP JUMPDEST PUSH32 0x4E487B7100000000000000000000000000000000000000000000000000000000 PUSH0 MSTORE PUSH1 0x11 PUSH1 0x4 MSTORE PUSH1 0x24 PUSH0 REVERT JUMPDEST PUSH0 PUSH2 0x10A9 DUP3 PUSH2 0xBB5 JUMP JUMPDEST SWAP2 POP PUSH32 0xFFFFFFFFFFFFFFFFFFFFFFFFFFFFFFFFFFFFFFFFFFFFFFFFFFFFFFFFFFFFFFFF DUP3 SUB PUSH2 0x10DB JUMPI PUSH2 0x10DA PUSH2 0x1072 JUMP JUMPDEST JUMPDEST PUSH1 0x1 DUP3 ADD SWAP1 POP SWAP2 SWAP1 POP JUMP JUMPDEST PUSH32 0x4E487B7100000000000000000000000000000000000000000000000000000000 PUSH0 MSTORE PUSH1 0x22 PUSH1 0x4 MSTORE PUSH1 0x24 PUSH0 REVERT JUMPDEST PUSH0 PUSH1 0x2 DUP3 DIV SWAP1 POP PUSH1 0x1 DUP3 AND DUP1 PUSH2 0x112A JUMPI PUSH1 0x7F DUP3 AND SWAP2 POP JUMPDEST PUSH1 0x20 DUP3 LT DUP2 SUB PUSH2 0x113D JUMPI PUSH2 0x113C PUSH2 0x10E6 JUMP JUMPDEST JUMPDEST POP SWAP2 SWAP1 POP JUMP JUMPDEST PUSH0 DUP2 SWAP1 POP DUP2 PUSH0 MSTORE PUSH1 0x20 PUSH0 KECCAK256 SWAP1 POP SWAP2 SWAP1 POP JUMP JUMPDEST PUSH0 PUSH1 0x20 PUSH1 0x1F DUP4 ADD DIV SWAP1 POP SWAP2 SWAP1 POP JUMP JUMPDEST PUSH0 DUP3 DUP3 SHL SWAP1 POP SWAP3 SWAP2 POP POP JUMP JUMPDEST PUSH0 PUSH1 0x8 DUP4 MUL PUSH2 0x119F PUSH32 0xFFFFFFFFFFFFFFFFFFFFFFFFFFFFFFFFFFFFFFFFFFFFFFFFFFFFFFFFFFFFFFFF DUP3 PUSH2 0x1164 JUMP JUMPDEST PUSH2 0x11A9 DUP7 DUP4 PUSH2 0x1164 JUMP JUMPDEST SWAP6 POP DUP1 NOT DUP5 AND SWAP4 POP DUP1 DUP7 AND DUP5 OR SWAP3 POP POP POP SWAP4 SWAP3 POP POP POP JUMP JUMPDEST PUSH0 DUP2 SWAP1 POP SWAP2 SWAP1 POP JUMP JUMPDEST PUSH0 PUSH2 0x11E4 PUSH2 0x11DF PUSH2 0x11DA DUP5 PUSH2 0xBB5 JUMP JUMPDEST PUSH2 0x11C1 JUMP JUMPDEST PUSH2 0xBB5 JUMP JUMPDEST SWAP1 POP SWAP2 SWAP1 POP JUMP JUMPDEST PUSH0 DUP2 SWAP1 POP SWAP2 SWAP1 POP JUMP JUMPDEST PUSH2 0x11FD DUP4 PUSH2 0x11CA JUMP JUMPDEST PUSH2 0x1211 PUSH2 0x1209 DUP3 PUSH2 0x11EB JUMP JUMPDEST DUP5 DUP5 SLOAD PUSH2 0x1170 JUMP JUMPDEST DUP3 SSTORE POP POP POP POP JUMP JUMPDEST PUSH0 SWAP1 JUMP JUMPDEST PUSH2 0x1225 PUSH2 0x1219 JUMP JUMPDEST PUSH2 0x1230 DUP2 DUP5 DUP5 PUSH2 0x11F4 JUMP JUMPDEST POP POP POP JUMP JUMPDEST JUMPDEST DUP2 DUP2 LT ISZERO PUSH2 0x1253 JUMPI PUSH2 0x1248 PUSH0 DUP3 PUSH2 0x121D JUMP JUMPDEST PUSH1 0x1 DUP2 ADD SWAP1 POP PUSH2 0x1236 JUMP JUMPDEST POP POP JUMP JUMPDEST PUSH1 0x1F DUP3 GT ISZERO PUSH2 0x1298 JUMPI PUSH2 0x1269 DUP2 PUSH2 0x1143 JUMP JUMPDEST PUSH2 0x1272 DUP5 PUSH2 0x1155 JUMP JUMPDEST DUP2 ADD PUSH1 0x20 DUP6 LT ISZERO PUSH2 0x1281 JUMPI DUP2 SWAP1 POP JUMPDEST PUSH2 0x1295 PUSH2 0x128D DUP6 PUSH2 0x1155 JUMP JUMPDEST DUP4 ADD DUP3 PUSH2 0x1235 JUMP JUMPDEST POP POP JUMPDEST POP POP POP JUMP JUMPDEST PUSH0 DUP3 DUP3 SHR SWAP1 POP SWAP3 SWAP2 POP POP JUMP JUMPDEST PUSH0 PUSH2 0x12B8 PUSH0 NOT DUP5 PUSH1 0x8 MUL PUSH2 0x129D JUMP JUMPDEST NOT DUP1 DUP4 AND SWAP2 POP POP SWAP3 SWAP2 POP POP JUMP JUMPDEST PUSH0 PUSH2 0x12D0 DUP4 DUP4 PUSH2 0x12A9 JUMP JUMPDEST SWAP2 POP DUP3 PUSH1 0x2 MUL DUP3 OR SWAP1 POP SWAP3 SWAP2 POP POP JUMP JUMPDEST PUSH2 0x12E9 DUP3 PUSH2 0xEFB JUMP JUMPDEST PUSH8 0xFFFFFFFFFFFFFFFF DUP2 GT ISZERO PUSH2 0x1302 JUMPI PUSH2 0x1301 PUSH2 0xD14 JUMP JUMPDEST JUMPDEST PUSH2 0x130C DUP3 SLOAD PUSH2 0x1113 JUMP JUMPDEST PUSH2 0x1317 DUP3 DUP3 DUP6 PUSH2 0x1257 JUMP JUMPDEST PUSH0 PUSH1 0x20 SWAP1 POP PUSH1 0x1F DUP4 GT PUSH1 0x1 DUP2 EQ PUSH2 0x1348 JUMPI PUSH0 DUP5 ISZERO PUSH2 0x1336 JUMPI DUP3 DUP8 ADD MLOAD SWAP1 POP JUMPDEST PUSH2 0x1340 DUP6 DUP3 PUSH2 0x12C5 JUMP JUMPDEST DUP7 SSTORE POP PUSH2 0x13A7 JUMP JUMPDEST PUSH1 0x1F NOT DUP5 AND PUSH2 0x1356 DUP7 PUSH2 0x1143 JUMP JUMPDEST PUSH0 JUMPDEST DUP3 DUP2 LT ISZERO PUSH2 0x137D JUMPI DUP5 DUP10 ADD MLOAD DUP3 SSTORE PUSH1 0x1 DUP3 ADD SWAP2 POP PUSH1 0x20 DUP6 ADD SWAP5 POP PUSH1 0x20 DUP2 ADD SWAP1 POP PUSH2 0x1358 JUMP JUMPDEST DUP7 DUP4 LT ISZERO PUSH2 0x139A JUMPI DUP5 DUP10 ADD MLOAD PUSH2 0x1396 PUSH1 0x1F DUP10 AND DUP3 PUSH2 0x12A9 JUMP JUMPDEST DUP4 SSTORE POP JUMPDEST PUSH1 0x1 PUSH1 0x2 DUP9 MUL ADD DUP9 SSTORE POP POP POP JUMPDEST POP POP POP POP POP POP JUMP JUMPDEST PUSH0 PUSH1 0x80 DUP3 ADD SWAP1 POP PUSH2 0x13C2 PUSH0 DUP4 ADD DUP8 PUSH2 0xCD4 JUMP JUMPDEST DUP2 DUP2 SUB PUSH1 0x20 DUP4 ADD MSTORE PUSH2 0x13D4 DUP2 DUP7 PUSH2 0xF23 JUMP JUMPDEST SWAP1 POP PUSH2 0x13E3 PUSH1 0x40 DUP4 ADD DUP6 PUSH2 0xCD4 JUMP JUMPDEST PUSH2 0x13F0 PUSH1 0x60 DUP4 ADD DUP5 PUSH2 0xF7B JUMP JUMPDEST SWAP6 SWAP5 POP POP POP POP POP JUMP JUMPDEST PUSH32 0x4974656D20646F6573206E6F7420657869737400000000000000000000000000 PUSH0 DUP3 ADD MSTORE POP JUMP JUMPDEST PUSH0 PUSH2 0x142D PUSH1 0x13 DUP4 PUSH2 0xF05 JUMP JUMPDEST SWAP2 POP PUSH2 0x1438 DUP3 PUSH2 0x13F9 JUMP JUMPDEST PUSH1 0x20 DUP3 ADD SWAP1 POP SWAP2 SWAP1 POP JUMP JUMPDEST PUSH0 PUSH1 0x20 DUP3 ADD SWAP1 POP DUP2 DUP2 SUB PUSH0 DUP4 ADD MSTORE PUSH2 0x145A DUP2 PUSH2 0x1421 JUMP JUMPDEST SWAP1 POP SWAP2 SWAP1 POP JUMP JUMPDEST PUSH32 0x596F7520617265206E6F7420746865206F776E6572206F662074686973206974 PUSH0 DUP3 ADD MSTORE PUSH32 0x656D000000000000000000000000000000000000000000000000000000000000 PUSH1 0x20 DUP3 ADD MSTORE POP JUMP JUMPDEST PUSH0 PUSH2 0x14BB PUSH1 0x22 DUP4 PUSH2 0xF05 JUMP JUMPDEST SWAP2 POP PUSH2 0x14C6 DUP3 PUSH2 0x1461 JUMP JUMPDEST PUSH1 0x40 DUP3 ADD SWAP1 POP SWAP2 SWAP1 POP JUMP JUMPDEST PUSH0 PUSH1 0x20 DUP3 ADD SWAP1 POP DUP2 DUP2 SUB PUSH0 DUP4 ADD MSTORE PUSH2 0x14E8 DUP2 PUSH2 0x14AF JUMP JUMPDEST SWAP1 POP SWAP2 SWAP1 POP JUMP JUMPDEST PUSH32 0x496E76616C696420496400000000000000000000000000000000000000000000 PUSH0 DUP3 ADD MSTORE POP JUMP JUMPDEST PUSH0 PUSH2 0x1523 PUSH1 0xA DUP4 PUSH2 0xF05 JUMP JUMPDEST SWAP2 POP PUSH2 0x152E DUP3 PUSH2 0x14EF JUMP JUMPDEST PUSH1 0x20 DUP3 ADD SWAP1 POP SWAP2 SWAP1 POP JUMP JUMPDEST PUSH0 PUSH1 0x20 DUP3 ADD SWAP1 POP DUP2 DUP2 SUB PUSH0 DUP4 ADD MSTORE PUSH2 0x1550 DUP2 PUSH2 0x1517 JUMP JUMPDEST SWAP1 POP SWAP2 SWAP1 POP JUMP JUMPDEST PUSH32 0x496E636F72726563742050726963650000000000000000000000000000000000 PUSH0 DUP3 ADD MSTORE POP JUMP JUMPDEST PUSH0 PUSH2 0x158B PUSH1 0xF DUP4 PUSH2 0xF05 JUMP JUMPDEST SWAP2 POP PUSH2 0x1596 DUP3 PUSH2 0x1557 JUMP JUMPDEST PUSH1 0x20 DUP3 ADD SWAP1 POP SWAP2 SWAP1 POP JUMP JUMPDEST PUSH0 PUSH1 0x20 DUP3 ADD SWAP1 POP DUP2 DUP2 SUB PUSH0 DUP4 ADD MSTORE PUSH2 0x15B8 DUP2 PUSH2 0x157F JUMP JUMPDEST SWAP1 POP SWAP2 SWAP1 POP JUMP JUMPDEST PUSH32 0x4974656D20616C726561647920736F6C64000000000000000000000000000000 PUSH0 DUP3 ADD MSTORE POP JUMP JUMPDEST PUSH0 PUSH2 0x15F3 PUSH1 0x11 DUP4 PUSH2 0xF05 JUMP JUMPDEST SWAP2 POP PUSH2 0x15FE DUP3 PUSH2 0x15BF JUMP JUMPDEST PUSH1 0x20 DUP3 ADD SWAP1 POP SWAP2 SWAP1 POP JUMP JUMPDEST PUSH0 PUSH1 0x20 DUP3 ADD SWAP1 POP DUP2 DUP2 SUB PUSH0 DUP4 ADD MSTORE PUSH2 0x1620 DUP2 PUSH2 0x15E7 JUMP JUMPDEST SWAP1 POP SWAP2 SWAP1 POP JUMP JUMPDEST PUSH32 0x53656C6C65722063616E6E6F7420627579207468656972206F776E206974656D PUSH0 DUP3 ADD MSTORE POP JUMP JUMPDEST PUSH0 PUSH2 0x165B PUSH1 0x20 DUP4 PUSH2 0xF05 JUMP JUMPDEST SWAP2 POP PUSH2 0x1666 DUP3 PUSH2 0x1627 JUMP JUMPDEST PUSH1 0x20 DUP3 ADD SWAP1 POP SWAP2 SWAP1 POP JUMP JUMPDEST PUSH0 PUSH1 0x20 DUP3 ADD SWAP1 POP DUP2 DUP2 SUB PUSH0 DUP4 ADD MSTORE PUSH2 0x1688 DUP2 PUSH2 0x164F JUMP JUMPDEST SWAP1 POP SWAP2 SWAP1 POP JUMP JUMPDEST PUSH0 PUSH1 0x40 DUP3 ADD SWAP1 POP PUSH2 0x16A2 PUSH0 DUP4 ADD DUP6 PUSH2 0xCD4 JUMP JUMPDEST PUSH2 0x16AF PUSH1 0x20 DUP4 ADD DUP5 PUSH2 0xF7B JUMP JUMPDEST SWAP4 SWAP3 POP POP POP JUMP JUMPDEST PUSH32 0x4E487B7100000000000000000000000000000000000000000000000000000000 PUSH0 MSTORE PUSH1 0x32 PUSH1 0x4 MSTORE PUSH1 0x24 PUSH0 REVERT JUMPDEST PUSH0 PUSH2 0x16ED DUP3 PUSH2 0xBB5 JUMP JUMPDEST SWAP2 POP PUSH2 0x16F8 DUP4 PUSH2 0xBB5 JUMP JUMPDEST SWAP3 POP DUP3 DUP3 SUB SWAP1 POP DUP2 DUP2 GT ISZERO PUSH2 0x1710 JUMPI PUSH2 0x170F PUSH2 0x1072 JUMP JUMPDEST JUMPDEST SWAP3 SWAP2 POP POP JUMP JUMPDEST PUSH32 0x4E487B7100000000000000000000000000000000000000000000000000000000 PUSH0 MSTORE PUSH1 0x31 PUSH1 0x4 MSTORE PUSH1 0x24 PUSH0 REVERT INVALID LOG2 PUSH5 0x6970667358 0x22 SLT KECCAK256 0xE5 0xE7 0xDE PUSH19 0xEED2DE137FE2269E66B3887A17790013F5CD 0xCF SIGNEXTEND 0x4F PUSH6 0xD43C4F051564 PUSH20 0x6F6C634300081A00330000000000000000000000 "
		},
		"gasEstimates": {
			"creation": {
				"codeDepositCost": "1201800",
				"executionCost": "6251",
				"totalCost": "1208051"
			},
			"external": {
				"getItemsByOwner(address)": "infinite",
				"itemCount()": "2469",
				"items(uint256)": "infinite",
				"listItem(string,uint256)": "infinite",
				"ownedItems(address,uint256)": "infinite",
				"purchaseItem(uint256)": "infinite",
				"transferItem(uint256,address)": "infinite"
			},
			"internal": {
				"_transferOwnership(uint256,address,address)": "infinite"
			}
		},
		"methodIdentifiers": {
			"getItemsByOwner(address)": "2c67a8e5",
			"itemCount()": "6bfb0d01",
			"items(uint256)": "bfb231d2",
			"listItem(string,uint256)": "8511c937",
			"ownedItems(address,uint256)": "42846534",
			"purchaseItem(uint256)": "d38ea5bf",
			"transferItem(uint256,address)": "a4229101"
		}
	},
	"abi": [
		{
			"anonymous": false,
			"inputs": [
				{
					"indexed": false,
					"internalType": "uint256",
					"name": "id",
					"type": "uint256"
				},
				{
					"indexed": false,
					"internalType": "string",
					"name": "name",
					"type": "string"
				},
				{
					"indexed": false,
					"internalType": "uint256",
					"name": "price",
					"type": "uint256"
				},
				{
					"indexed": false,
					"internalType": "address",
					"name": "seller",
					"type": "address"
				}
			],
			"name": "ItemAdded",
			"type": "event"
		},
		{
			"anonymous": false,
			"inputs": [
				{
					"indexed": false,
					"internalType": "uint256",
					"name": "id",
					"type": "uint256"
				},
				{
					"indexed": false,
					"internalType": "address",
					"name": "buyer",
					"type": "address"
				}
			],
			"name": "ItemSold",
			"type": "event"
		},
		{
			"inputs": [
				{
					"internalType": "address",
					"name": "_owner",
					"type": "address"
				}
			],
			"name": "getItemsByOwner",
			"outputs": [
				{
					"internalType": "uint256[]",
					"name": "",
					"type": "uint256[]"
				}
			],
			"stateMutability": "view",
			"type": "function"
		},
		{
			"inputs": [],
			"name": "itemCount",
			"outputs": [
				{
					"internalType": "uint256",
					"name": "",
					"type": "uint256"
				}
			],
			"stateMutability": "view",
			"type": "function"
		},
		{
			"inputs": [
				{
					"internalType": "uint256",
					"name": "",
					"type": "uint256"
				}
			],
			"name": "items",
			"outputs": [
				{
					"internalType": "uint256",
					"name": "Id",
					"type": "uint256"
				},
				{
					"internalType": "string",
					"name": "Name",
					"type": "string"
				},
				{
					"internalType": "uint256",
					"name": "Price",
					"type": "uint256"
				},
				{
					"internalType": "address payable",
					"name": "Seller",
					"type": "address"
				},
				{
					"internalType": "address",
					"name": "Owner",
					"type": "address"
				},
				{
					"internalType": "bool",
					"name": "IsSold",
					"type": "bool"
				}
			],
			"stateMutability": "view",
			"type": "function"
		},
		{
			"inputs": [
				{
					"internalType": "string",
					"name": "_name",
					"type": "string"
				},
				{
					"internalType": "uint256",
					"name": "_price",
					"type": "uint256"
				}
			],
			"name": "listItem",
			"outputs": [],
			"stateMutability": "nonpayable",
			"type": "function"
		},
		{
			"inputs": [
				{
					"internalType": "address",
					"name": "",
					"type": "address"
				},
				{
					"internalType": "uint256",
					"name": "",
					"type": "uint256"
				}
			],
			"name": "ownedItems",
			"outputs": [
				{
					"internalType": "uint256",
					"name": "",
					"type": "uint256"
				}
			],
			"stateMutability": "view",
			"type": "function"
		},
		{
			"inputs": [
				{
					"internalType": "uint256",
					"name": "_id",
					"type": "uint256"
				}
			],
			"name": "purchaseItem",
			"outputs": [],
			"stateMutability": "payable",
			"type": "function"
		},
		{
			"inputs": [
				{
					"internalType": "uint256",
					"name": "_id",
					"type": "uint256"
				},
				{
					"internalType": "address",
					"name": "_to",
					"type": "address"
				}
			],
			"name": "transferItem",
			"outputs": [],
			"stateMutability": "nonpayable",
			"type": "function"
		}
	]
}